{
  "address": "0xa0CC2Fd5cC234A475B0788A62436d5633985219b",
  "abi": [
    {
      "inputs": [
        {
          "internalType": "address",
          "name": "_signer",
          "type": "address"
        }
      ],
      "stateMutability": "nonpayable",
      "type": "constructor"
    },
    {
      "anonymous": false,
      "inputs": [
        {
          "indexed": true,
          "internalType": "address",
          "name": "owner",
          "type": "address"
        },
        {
          "indexed": true,
          "internalType": "address",
          "name": "spender",
          "type": "address"
        },
        {
          "indexed": false,
          "internalType": "uint256",
          "name": "value",
          "type": "uint256"
        }
      ],
      "name": "Approval",
      "type": "event"
    },
    {
      "anonymous": false,
      "inputs": [
        {
          "indexed": true,
          "internalType": "address",
          "name": "signer",
          "type": "address"
        }
      ],
      "name": "ChangeSigner",
      "type": "event"
    },
    {
      "anonymous": false,
      "inputs": [
        {
          "indexed": false,
          "internalType": "uint256",
          "name": "weiAmount",
          "type": "uint256"
        }
      ],
      "name": "DividendsDistributed",
      "type": "event"
    },
    {
      "anonymous": false,
      "inputs": [
        {
          "indexed": true,
          "internalType": "address",
          "name": "previousOwner",
          "type": "address"
        },
        {
          "indexed": true,
          "internalType": "address",
          "name": "newOwner",
          "type": "address"
        }
      ],
      "name": "OwnershipTransferred",
      "type": "event"
    },
    {
      "anonymous": false,
      "inputs": [
        {
          "indexed": true,
          "internalType": "address",
          "name": "account",
          "type": "address"
        },
        {
          "indexed": false,
          "internalType": "bool",
          "name": "blacklisted",
          "type": "bool"
        }
      ],
      "name": "SetBlacklisted",
      "type": "event"
    },
    {
      "anonymous": false,
      "inputs": [],
      "name": "Start",
      "type": "event"
    },
    {
      "anonymous": false,
      "inputs": [
        {
          "indexed": true,
          "internalType": "address",
          "name": "from",
          "type": "address"
        },
        {
          "indexed": true,
          "internalType": "address",
          "name": "to",
          "type": "address"
        },
        {
          "indexed": false,
          "internalType": "uint256",
          "name": "value",
          "type": "uint256"
        }
      ],
      "name": "Transfer",
      "type": "event"
    },
    {
      "anonymous": false,
      "inputs": [
        {
          "indexed": true,
          "internalType": "address",
          "name": "to",
          "type": "address"
        },
        {
          "indexed": false,
          "internalType": "uint256",
          "name": "weiAmount",
          "type": "uint256"
        }
      ],
      "name": "Withdraw",
      "type": "event"
    },
    {
      "inputs": [],
      "name": "FINAL_ERA",
      "outputs": [
        {
          "internalType": "uint256",
          "name": "",
          "type": "uint256"
        }
      ],
      "stateMutability": "view",
      "type": "function"
    },
    {
      "inputs": [],
      "name": "HALVING_PERIOD",
      "outputs": [
        {
          "internalType": "uint256",
          "name": "",
          "type": "uint256"
        }
      ],
      "stateMutability": "view",
      "type": "function"
    },
    {
      "inputs": [],
      "name": "MAGNITUDE",
      "outputs": [
        {
          "internalType": "uint256",
          "name": "",
          "type": "uint256"
        }
      ],
      "stateMutability": "view",
      "type": "function"
    },
    {
      "inputs": [
        {
          "internalType": "address",
          "name": "account",
          "type": "address"
        }
      ],
      "name": "accumulativeDividendOf",
      "outputs": [
        {
          "internalType": "uint256",
          "name": "",
          "type": "uint256"
        }
      ],
      "stateMutability": "view",
      "type": "function"
    },
    {
      "inputs": [
        {
          "internalType": "address",
          "name": "owner",
          "type": "address"
        },
        {
          "internalType": "address",
          "name": "spender",
          "type": "address"
        }
      ],
      "name": "allowance",
      "outputs": [
        {
          "internalType": "uint256",
          "name": "",
          "type": "uint256"
        }
      ],
      "stateMutability": "view",
      "type": "function"
    },
    {
      "inputs": [
        {
          "internalType": "address",
          "name": "spender",
          "type": "address"
        },
        {
          "internalType": "uint256",
          "name": "amount",
          "type": "uint256"
        }
      ],
      "name": "approve",
      "outputs": [
        {
          "internalType": "bool",
          "name": "",
          "type": "bool"
        }
      ],
      "stateMutability": "nonpayable",
      "type": "function"
    },
    {
      "inputs": [
        {
          "internalType": "address",
          "name": "account",
          "type": "address"
        }
      ],
      "name": "balanceOf",
      "outputs": [
        {
          "internalType": "uint256",
          "name": "",
          "type": "uint256"
        }
      ],
      "stateMutability": "view",
      "type": "function"
    },
    {
      "inputs": [
        {
          "internalType": "address",
          "name": "",
          "type": "address"
        }
      ],
      "name": "blacklisted",
      "outputs": [
        {
          "internalType": "bool",
          "name": "",
          "type": "bool"
        }
      ],
      "stateMutability": "view",
      "type": "function"
    },
    {
      "inputs": [
        {
          "internalType": "uint256",
          "name": "value",
          "type": "uint256"
        }
      ],
      "name": "burn",
      "outputs": [],
      "stateMutability": "nonpayable",
      "type": "function"
    },
    {
      "inputs": [
        {
          "internalType": "address",
          "name": "_signer",
          "type": "address"
        }
      ],
      "name": "changeSigner",
      "outputs": [],
      "stateMutability": "nonpayable",
      "type": "function"
    },
    {
      "inputs": [
        {
          "internalType": "uint8",
          "name": "v",
          "type": "uint8"
        },
        {
          "internalType": "bytes32",
          "name": "r",
          "type": "bytes32"
        },
        {
          "internalType": "bytes32",
          "name": "s",
          "type": "bytes32"
        }
      ],
      "name": "claim",
      "outputs": [],
      "stateMutability": "nonpayable",
      "type": "function"
    },
    {
      "inputs": [
        {
          "internalType": "address",
          "name": "",
          "type": "address"
        }
      ],
      "name": "claimed",
      "outputs": [
        {
          "internalType": "bool",
          "name": "",
          "type": "bool"
        }
      ],
      "stateMutability": "view",
      "type": "function"
    },
    {
      "inputs": [],
      "name": "currentHalvingEra",
      "outputs": [
        {
          "internalType": "uint256",
          "name": "",
          "type": "uint256"
        }
      ],
      "stateMutability": "view",
      "type": "function"
    },
    {
      "inputs": [],
      "name": "decimals",
      "outputs": [
        {
          "internalType": "uint8",
          "name": "",
          "type": "uint8"
        }
      ],
      "stateMutability": "view",
      "type": "function"
    },
    {
      "inputs": [
        {
          "internalType": "address",
          "name": "spender",
          "type": "address"
        },
        {
          "internalType": "uint256",
          "name": "subtractedValue",
          "type": "uint256"
        }
      ],
      "name": "decreaseAllowance",
      "outputs": [
        {
          "internalType": "bool",
          "name": "",
          "type": "bool"
        }
      ],
      "stateMutability": "nonpayable",
      "type": "function"
    },
    {
      "inputs": [
        {
          "internalType": "address",
          "name": "spender",
          "type": "address"
        },
        {
          "internalType": "uint256",
          "name": "addedValue",
          "type": "uint256"
        }
      ],
      "name": "increaseAllowance",
      "outputs": [
        {
          "internalType": "bool",
          "name": "",
          "type": "bool"
        }
      ],
      "stateMutability": "nonpayable",
      "type": "function"
    },
    {
      "inputs": [],
      "name": "name",
      "outputs": [
        {
          "internalType": "string",
          "name": "",
          "type": "string"
        }
      ],
      "stateMutability": "view",
      "type": "function"
    },
    {
      "inputs": [],
      "name": "owner",
      "outputs": [
        {
          "internalType": "address",
          "name": "",
          "type": "address"
        }
      ],
      "stateMutability": "view",
      "type": "function"
    },
    {
      "inputs": [],
      "name": "renounceOwnership",
      "outputs": [],
      "stateMutability": "nonpayable",
      "type": "function"
    },
    {
      "inputs": [
        {
          "internalType": "address",
          "name": "account",
          "type": "address"
        },
        {
          "internalType": "bool",
          "name": "_blacklisted",
          "type": "bool"
        }
      ],
      "name": "setBlacklisted",
      "outputs": [],
      "stateMutability": "nonpayable",
      "type": "function"
    },
    {
      "inputs": [],
      "name": "signer",
      "outputs": [
        {
          "internalType": "address",
          "name": "",
          "type": "address"
        }
      ],
      "stateMutability": "view",
      "type": "function"
    },
    {
      "inputs": [],
      "name": "start",
      "outputs": [],
      "stateMutability": "nonpayable",
      "type": "function"
    },
    {
      "inputs": [],
      "name": "startedAt",
      "outputs": [
        {
          "internalType": "uint256",
          "name": "",
          "type": "uint256"
        }
      ],
      "stateMutability": "view",
      "type": "function"
    },
    {
      "inputs": [],
      "name": "symbol",
      "outputs": [
        {
          "internalType": "string",
          "name": "",
          "type": "string"
        }
      ],
      "stateMutability": "view",
      "type": "function"
    },
    {
      "inputs": [],
      "name": "totalSupply",
      "outputs": [
        {
          "internalType": "uint256",
          "name": "",
          "type": "uint256"
        }
      ],
      "stateMutability": "view",
      "type": "function"
    },
    {
      "inputs": [
        {
          "internalType": "address",
          "name": "to",
          "type": "address"
        },
        {
          "internalType": "uint256",
          "name": "amount",
          "type": "uint256"
        }
      ],
      "name": "transfer",
      "outputs": [
        {
          "internalType": "bool",
          "name": "",
          "type": "bool"
        }
      ],
      "stateMutability": "nonpayable",
      "type": "function"
    },
    {
      "inputs": [
        {
          "internalType": "address",
          "name": "from",
          "type": "address"
        },
        {
          "internalType": "address",
          "name": "to",
          "type": "address"
        },
        {
          "internalType": "uint256",
          "name": "amount",
          "type": "uint256"
        }
      ],
      "name": "transferFrom",
      "outputs": [
        {
          "internalType": "bool",
          "name": "",
          "type": "bool"
        }
      ],
      "stateMutability": "nonpayable",
      "type": "function"
    },
    {
      "inputs": [
        {
          "internalType": "address",
          "name": "newOwner",
          "type": "address"
        }
      ],
      "name": "transferOwnership",
      "outputs": [],
      "stateMutability": "nonpayable",
      "type": "function"
    },
    {
      "inputs": [],
      "name": "withdrawDividend",
      "outputs": [],
      "stateMutability": "nonpayable",
      "type": "function"
    },
    {
      "inputs": [
        {
          "internalType": "address",
          "name": "account",
          "type": "address"
        }
      ],
      "name": "withdrawableDividendOf",
      "outputs": [
        {
          "internalType": "uint256",
          "name": "",
          "type": "uint256"
        }
      ],
      "stateMutability": "view",
      "type": "function"
    },
    {
      "inputs": [
        {
          "internalType": "address",
          "name": "account",
          "type": "address"
        }
      ],
      "name": "withdrawnDividendOf",
      "outputs": [
        {
          "internalType": "uint256",
          "name": "",
          "type": "uint256"
        }
      ],
      "stateMutability": "view",
      "type": "function"
    }
  ],
  "transactionHash": "0x1b5dc87d59f8df79cb311537854d0215e44cd9c91be1235aadf116ca26caf07c",
  "args": [
    "0xE9d4AFB6f8C9196972C6d9a74D5e54bBb7721f5B"
  ],
  "solcInputHash": "fcea8fc9661d288ba0c4cfcbdd9fdac8",
  "bytecode": "0x60806040523480156200001157600080fd5b5060405162001e2f38038062001e2f83398101604081905262000034916200024f565b604080518082018252600d81526c7468657a65726f2e6d6f6e657960981b6020808301918252835180850190945260048452635a45524f60e01b9084015281519192916200008591600391620001a9565b5080516200009b906004906020840190620001a9565b505050620000b8620000b26200015360201b60201c565b62000157565b600680546001600160a01b0319166001600160a01b03831690811790915530600090815260086020526040808220805460ff19166001179055517f2c4c2330e655d7c5374379a59a72351868d5364faf6af52488661fa4e344f9489190a26040516001815230907f1419b35ce324d7ecb9c6de0a648dc50d3ea421644bddd98935012f8c4013e8099060200160405180910390a250620002bd565b3390565b600580546001600160a01b038381166001600160a01b0319831681179093556040519116919082907f8be0079c531659141344cd1fd0a4f28419497f9722a3daafe3b4186f6b6457e090600090a35050565b828054620001b79062000281565b90600052602060002090601f016020900481019282620001db576000855562000226565b82601f10620001f657805160ff191683800117855562000226565b8280016001018555821562000226579182015b828111156200022657825182559160200191906001019062000209565b506200023492915062000238565b5090565b5b8082111562000234576000815560010162000239565b6000602082840312156200026257600080fd5b81516001600160a01b03811681146200027a57600080fd5b9392505050565b600181811c908216806200029657607f821691505b602082108103620002b757634e487b7160e01b600052602260045260246000fd5b50919050565b611b6280620002cd6000396000f3fe608060405234801561001057600080fd5b50600436106101e55760003560e01c80638e6bb8741161010f578063ba9b07c3116100a2578063dbac26e911610071578063dbac26e914610402578063dd62ed3e14610425578063f21f537d1461045e578063f2fde38b1461046757600080fd5b8063ba9b07c3146103bc578063be9a6555146103c4578063c884ef83146103cc578063d01dd6d2146103ef57600080fd5b8063a9059cbb116100de578063a9059cbb1461035a578063aac6c6cd1461036d578063aad2b72314610380578063aafd847a1461039357600080fd5b80638e6bb8741461032457806395d89b411461032c578063a457c2d714610334578063a8b9d2401461034757600080fd5b806339509351116101875780636d3036a7116101565780636d3036a7146102d757806370a08231146102e2578063715018a61461030b5780638da5cb5b1461031357600080fd5b8063395093511461029d5780633adde9c1146102b057806342966c68146102ba5780636a474002146102cf57600080fd5b8063238ac933116101c3578063238ac9331461023d57806323b872dd1461026857806327ce01471461027b578063313ce5671461028e57600080fd5b806306fdde03146101ea578063095ea7b31461020857806318160ddd1461022b575b600080fd5b6101f261047a565b6040516101ff91906116f5565b60405180910390f35b61021b610216366004611766565b61050c565b60405190151581526020016101ff565b6002545b6040519081526020016101ff565b600654610250906001600160a01b031681565b6040516001600160a01b0390911681526020016101ff565b61021b610276366004611790565b610526565b61022f6102893660046117cc565b61054a565b604051601281526020016101ff565b61021b6102ab366004611766565b6105a6565b61022f621baf8081565b6102cd6102c83660046117ee565b6105e5565b005b6102cd610627565b61022f600160801b81565b61022f6102f03660046117cc565b6001600160a01b031660009081526020819052604090205490565b6102cd6106e7565b6005546001600160a01b0316610250565b61022f603c81565b6101f261071d565b61021b610342366004611766565b61072c565b61022f6103553660046117cc565b6107be565b61021b610368366004611766565b6107ea565b6102cd61037b366004611807565b6107f8565b6102cd61038e3660046117cc565b61096a565b61022f6103a13660046117cc565b6001600160a01b03166000908152600c602052604090205490565b61022f6109de565b6102cd610a28565b61021b6103da3660046117cc565b60096020526000908152604090205460ff1681565b6102cd6103fd366004611842565b610a93565b61021b6104103660046117cc565b60086020526000908152604090205460ff1681565b61022f61043336600461187e565b6001600160a01b03918216600090815260016020908152604080832093909416825291909152205490565b61022f60075481565b6102cd6104753660046117cc565b610b1c565b606060038054610489906118b1565b80601f01602080910402602001604051908101604052809291908181526020018280546104b5906118b1565b80156105025780601f106104d757610100808354040283529160200191610502565b820191906000526020600020905b8154815290600101906020018083116104e557829003601f168201915b5050505050905090565b60003361051a818585610bb7565b60019150505b92915050565b600033610534858285610cdc565b61053f858585610d68565b506001949350505050565b6001600160a01b0381166000908152600b602090815260408083205491839052822054600160801b9161059c9161058d90600a546105889190611901565b610e1d565b6105979190611920565b610e8b565b6105209190611961565b3360008181526001602090815260408083206001600160a01b038716845290915281205490919061051a90829086906105e0908790611983565b610bb7565b6105ef3382610edd565b61060081600a546105889190611901565b336000908152600b60205260408120805490919061061f908490611920565b909155505050565b6000610632336107be565b90506000811161067f5760405162461bcd60e51b815260206004820152601360248201527216915493ce8816915493d7d112559251115391606a1b60448201526064015b60405180910390fd5b336000908152600c60205260408120805483929061069e908490611983565b909155506106af9050303383610d68565b60405181815233907f884edad9ce6fa2440d8a54cc123490eb96d2768479d49ff9c7366125a94243649060200160405180910390a250565b6005546001600160a01b031633146107115760405162461bcd60e51b81526004016106769061199b565b61071b6000611023565b565b606060048054610489906118b1565b3360008181526001602090815260408083206001600160a01b0387168452909152812054909190838110156107b15760405162461bcd60e51b815260206004820152602560248201527f45524332303a2064656372656173656420616c6c6f77616e63652062656c6f77604482015264207a65726f60d81b6064820152608401610676565b61053f8286868403610bb7565b6001600160a01b0381166000908152600c60205260408120546107e08361054a565b61052091906119d0565b60003361051a818585610d68565b3360009081526009602052604090205460ff16156108485760405162461bcd60e51b815260206004820152600d60248201526c16915493ce8810d31052535151609a1b6044820152606401610676565b604080513360601b6bffffffffffffffffffffffff191660208083019190915282516014818403018152603490920190925280519101206006546001600160a01b03166108ed6108e5836040517f19457468657265756d205369676e6564204d6573736167653a0a3332000000006020820152603c8101829052600090605c01604051602081830303815290604052805190602001209050919050565b868686611075565b6001600160a01b0316146109385760405162461bcd60e51b815260206004820152601260248201527116915493ce8815539055551213d49256915160721b6044820152606401610676565b336000818152600960205260409020805460ff1916600117905561096490670de0b6b3a764000061109d565b50505050565b6005546001600160a01b031633146109945760405162461bcd60e51b81526004016106769061199b565b600680546001600160a01b0319166001600160a01b0383169081179091556040517f2c4c2330e655d7c5374379a59a72351868d5364faf6af52488661fa4e344f94890600090a250565b60006007546000036109f1575060001990565b6000621baf8060075442610a0591906119d0565b610a0f9190611961565b905080603c10610a1f5780610a22565b603c5b91505090565b6005546001600160a01b03163314610a525760405162461bcd60e51b81526004016106769061199b565b610a6433610a5f60025490565b61109d565b426007556040517f1b55ba3aa851a46be3b365aee5b5c140edd620d578922f3e8466d2cbd96f954b90600090a1565b6005546001600160a01b03163314610abd5760405162461bcd60e51b81526004016106769061199b565b6001600160a01b038216600081815260086020908152604091829020805460ff191685151590811790915591519182527f1419b35ce324d7ecb9c6de0a648dc50d3ea421644bddd98935012f8c4013e809910160405180910390a25050565b6005546001600160a01b03163314610b465760405162461bcd60e51b81526004016106769061199b565b6001600160a01b038116610bab5760405162461bcd60e51b815260206004820152602660248201527f4f776e61626c653a206e6577206f776e657220697320746865207a65726f206160448201526564647265737360d01b6064820152608401610676565b610bb481611023565b50565b6001600160a01b038316610c195760405162461bcd60e51b8152602060048201526024808201527f45524332303a20617070726f76652066726f6d20746865207a65726f206164646044820152637265737360e01b6064820152608401610676565b6001600160a01b038216610c7a5760405162461bcd60e51b815260206004820152602260248201527f45524332303a20617070726f766520746f20746865207a65726f206164647265604482015261737360f01b6064820152608401610676565b6001600160a01b0383811660008181526001602090815260408083209487168084529482529182902085905590518481527f8c5be1e5ebec7d5bd14f71427d1e84f3dd0314c0f7b2291e5b200ac8c7c3b92591015b60405180910390a3505050565b6001600160a01b0383811660009081526001602090815260408083209386168352929052205460001981146109645781811015610d5b5760405162461bcd60e51b815260206004820152601d60248201527f45524332303a20696e73756666696369656e7420616c6c6f77616e63650000006044820152606401610676565b6109648484848403610bb7565b610d738383836110e9565b6000610d8682600a546105889190611901565b6001600160a01b0385166000908152600b6020526040812080549293508392909190610db3908490611920565b90915550506001600160a01b0383166000908152600b602052604081208054839290610de09084906119e7565b909155505060075415801590610e0f57506001600160a01b03841660009081526008602052604090205460ff16155b1561096457610964826112b7565b60006001600160ff1b03821115610e875760405162461bcd60e51b815260206004820152602860248201527f53616665436173743a2076616c756520646f65736e27742066697420696e2061604482015267371034b73a191a9b60c11b6064820152608401610676565b5090565b600080821215610e875760405162461bcd60e51b815260206004820181905260248201527f53616665436173743a2076616c7565206d75737420626520706f7369746976656044820152606401610676565b6001600160a01b038216610f3d5760405162461bcd60e51b815260206004820152602160248201527f45524332303a206275726e2066726f6d20746865207a65726f206164647265736044820152607360f81b6064820152608401610676565b6001600160a01b03821660009081526020819052604090205481811015610fb15760405162461bcd60e51b815260206004820152602260248201527f45524332303a206275726e20616d6f756e7420657863656564732062616c616e604482015261636560f01b6064820152608401610676565b6001600160a01b0383166000908152602081905260408120838303905560028054849290610fe09084906119d0565b90915550506040518281526000906001600160a01b038516907fddf252ad1be2c89b69c2b068fc378daa952ba7f163c4a11628f55a4df523b3ef90602001610ccf565b600580546001600160a01b038381166001600160a01b0319831681179093556040519116919082907f8be0079c531659141344cd1fd0a4f28419497f9722a3daafe3b4186f6b6457e090600090a35050565b600080600061108687878787611373565b9150915061109381611460565b5095945050505050565b6110a78282611616565b6110b881600a546105889190611901565b6001600160a01b0383166000908152600b6020526040812080549091906110e09084906119e7565b90915550505050565b6001600160a01b03831661114d5760405162461bcd60e51b815260206004820152602560248201527f45524332303a207472616e736665722066726f6d20746865207a65726f206164604482015264647265737360d81b6064820152608401610676565b6001600160a01b0382166111af5760405162461bcd60e51b815260206004820152602360248201527f45524332303a207472616e7366657220746f20746865207a65726f206164647260448201526265737360e81b6064820152608401610676565b6001600160a01b038316600090815260208190526040902054818110156112275760405162461bcd60e51b815260206004820152602660248201527f45524332303a207472616e7366657220616d6f756e7420657863656564732062604482015265616c616e636560d01b6064820152608401610676565b6001600160a01b0380851660009081526020819052604080822085850390559185168152908120805484929061125e908490611983565b92505081905550826001600160a01b0316846001600160a01b03167fddf252ad1be2c89b69c2b068fc378daa952ba7f163c4a11628f55a4df523b3ef846040516112aa91815260200190565b60405180910390a3610964565b6000621baf80600754426112cb91906119d0565b6112d59190611961565b905080603c116112e3575050565b6112ee816002611b0a565b6112f89083611961565b915061130360025490565b611311600160801b84611901565b61131b9190611961565b600a600082825461132c9190611983565b9091555061133c9050308361109d565b6040518281527f051019b59d3b24249903e46fd05b6def7f293fc3de54eca64b3d32743f27fc8e9060200160405180910390a15050565b6000807f7fffffffffffffffffffffffffffffff5d576e7357a4501ddfe92f46681b20a08311156113aa5750600090506003611457565b8460ff16601b141580156113c257508460ff16601c14155b156113d35750600090506004611457565b6040805160008082526020820180845289905260ff881692820192909252606081018690526080810185905260019060a0016020604051602081039080840390855afa158015611427573d6000803e3d6000fd5b5050604051601f1901519150506001600160a01b03811661145057600060019250925050611457565b9150600090505b94509492505050565b600081600481111561147457611474611b16565b0361147c5750565b600181600481111561149057611490611b16565b036114dd5760405162461bcd60e51b815260206004820152601860248201527f45434453413a20696e76616c6964207369676e617475726500000000000000006044820152606401610676565b60028160048111156114f1576114f1611b16565b0361153e5760405162461bcd60e51b815260206004820152601f60248201527f45434453413a20696e76616c6964207369676e6174757265206c656e677468006044820152606401610676565b600381600481111561155257611552611b16565b036115aa5760405162461bcd60e51b815260206004820152602260248201527f45434453413a20696e76616c6964207369676e6174757265202773272076616c604482015261756560f01b6064820152608401610676565b60048160048111156115be576115be611b16565b03610bb45760405162461bcd60e51b815260206004820152602260248201527f45434453413a20696e76616c6964207369676e6174757265202776272076616c604482015261756560f01b6064820152608401610676565b6001600160a01b03821661166c5760405162461bcd60e51b815260206004820152601f60248201527f45524332303a206d696e7420746f20746865207a65726f2061646472657373006044820152606401610676565b806002600082825461167e9190611983565b90915550506001600160a01b038216600090815260208190526040812080548392906116ab908490611983565b90915550506040518181526001600160a01b038316906000907fddf252ad1be2c89b69c2b068fc378daa952ba7f163c4a11628f55a4df523b3ef9060200160405180910390a35050565b600060208083528351808285015260005b8181101561172257858101830151858201604001528201611706565b81811115611734576000604083870101525b50601f01601f1916929092016040019392505050565b80356001600160a01b038116811461176157600080fd5b919050565b6000806040838503121561177957600080fd5b6117828361174a565b946020939093013593505050565b6000806000606084860312156117a557600080fd5b6117ae8461174a565b92506117bc6020850161174a565b9150604084013590509250925092565b6000602082840312156117de57600080fd5b6117e78261174a565b9392505050565b60006020828403121561180057600080fd5b5035919050565b60008060006060848603121561181c57600080fd5b833560ff8116811461182d57600080fd5b95602085013595506040909401359392505050565b6000806040838503121561185557600080fd5b61185e8361174a565b91506020830135801515811461187357600080fd5b809150509250929050565b6000806040838503121561189157600080fd5b61189a8361174a565b91506118a86020840161174a565b90509250929050565b600181811c908216806118c557607f821691505b6020821081036118e557634e487b7160e01b600052602260045260246000fd5b50919050565b634e487b7160e01b600052601160045260246000fd5b600081600019048311821515161561191b5761191b6118eb565b500290565b600080821280156001600160ff1b0384900385131615611942576119426118eb565b600160ff1b839003841281161561195b5761195b6118eb565b50500190565b60008261197e57634e487b7160e01b600052601260045260246000fd5b500490565b60008219821115611996576119966118eb565b500190565b6020808252818101527f4f776e61626c653a2063616c6c6572206973206e6f7420746865206f776e6572604082015260600190565b6000828210156119e2576119e26118eb565b500390565b60008083128015600160ff1b850184121615611a0557611a056118eb565b6001600160ff1b0384018313811615611a2057611a206118eb565b50500390565b600181815b80851115611a61578160001904821115611a4757611a476118eb565b80851615611a5457918102915b93841c9390800290611a2b565b509250929050565b600082611a7857506001610520565b81611a8557506000610520565b8160018114611a9b5760028114611aa557611ac1565b6001915050610520565b60ff841115611ab657611ab66118eb565b50506001821b610520565b5060208310610133831016604e8410600b8410161715611ae4575081810a610520565b611aee8383611a26565b8060001904821115611b0257611b026118eb565b029392505050565b60006117e78383611a69565b634e487b7160e01b600052602160045260246000fdfea26469706673582212208177cbb542cf8ada112989a0b55a9e4f4045eed33f60ff23e80e0064ef3df1c064736f6c634300080d0033",
  "devdoc": {
    "details": "A mintable ERC20 token that allows anyone to pay and distribute ZERO  to token holders as dividends and allows token holders to withdraw their dividends.  Reference: https://github.com/Roger-Wu/erc1726-dividend-paying-token/blob/master/contracts/DividendPayingToken.sol",
    "events": {
      "DividendsDistributed(uint256)": {
        "details": "This event MUST emit when ZERO is distributed to token holders.",
        "params": {
          "weiAmount": "The amount of distributed ZERO in wei."
        }
      },
      "Withdraw(address,uint256)": {
        "details": "This event MUST emit when an address withdraws their dividend.",
        "params": {
          "to": "The address which withdraws ZERO from this contract.",
          "weiAmount": "The amount of withdrawn ZERO in wei."
        }
      }
    },
    "kind": "dev",
    "methods": {
      "accumulativeDividendOf(address)": {
        "details": "accumulativeDividendOf(account) = withdrawableDividendOf(account) + withdrawnDividendOf(account) = (magnifiedDividendPerShare * balanceOf(account) + magnifiedDividendCorrections[account]) / magnitude",
        "params": {
          "account": "The address of a token holder."
        },
        "returns": {
          "_0": "The amount of dividend in wei that `account` has earned in total."
        }
      },
      "allowance(address,address)": {
        "details": "See {IERC20-allowance}."
      },
      "approve(address,uint256)": {
        "details": "See {IERC20-approve}. NOTE: If `amount` is the maximum `uint256`, the allowance is not updated on `transferFrom`. This is semantically equivalent to an infinite approval. Requirements: - `spender` cannot be the zero address."
      },
      "balanceOf(address)": {
        "details": "See {IERC20-balanceOf}."
      },
      "burn(uint256)": {
        "details": "External function that burns an amount of the token of a given account. Update magnifiedDividendCorrections to keep dividends unchanged.",
        "params": {
          "value": "The amount that will be burnt."
        }
      },
      "decimals()": {
        "details": "Returns the number of decimals used to get its user representation. For example, if `decimals` equals `2`, a balance of `505` tokens should be displayed to a user as `5.05` (`505 / 10 ** 2`). Tokens usually opt for a value of 18, imitating the relationship between Ether and Wei. This is the value {ERC20} uses, unless this function is overridden; NOTE: This information is only used for _display_ purposes: it in no way affects any of the arithmetic of the contract, including {IERC20-balanceOf} and {IERC20-transfer}."
      },
      "decreaseAllowance(address,uint256)": {
        "details": "Atomically decreases the allowance granted to `spender` by the caller. This is an alternative to {approve} that can be used as a mitigation for problems described in {IERC20-approve}. Emits an {Approval} event indicating the updated allowance. Requirements: - `spender` cannot be the zero address. - `spender` must have allowance for the caller of at least `subtractedValue`."
      },
      "increaseAllowance(address,uint256)": {
        "details": "Atomically increases the allowance granted to `spender` by the caller. This is an alternative to {approve} that can be used as a mitigation for problems described in {IERC20-approve}. Emits an {Approval} event indicating the updated allowance. Requirements: - `spender` cannot be the zero address."
      },
      "name()": {
        "details": "Returns the name of the token."
      },
      "owner()": {
        "details": "Returns the address of the current owner."
      },
      "renounceOwnership()": {
        "details": "Leaves the contract without owner. It will not be possible to call `onlyOwner` functions anymore. Can only be called by the current owner. NOTE: Renouncing ownership will leave the contract without an owner, thereby removing any functionality that is only available to the owner."
      },
      "symbol()": {
        "details": "Returns the symbol of the token, usually a shorter version of the name."
      },
      "totalSupply()": {
        "details": "See {IERC20-totalSupply}."
      },
      "transfer(address,uint256)": {
        "details": "See {IERC20-transfer}. Requirements: - `to` cannot be the zero address. - the caller must have a balance of at least `amount`."
      },
      "transferFrom(address,address,uint256)": {
        "details": "See {IERC20-transferFrom}. Emits an {Approval} event indicating the updated allowance. This is not required by the EIP. See the note at the beginning of {ERC20}. NOTE: Does not update the allowance if the current allowance is the maximum `uint256`. Requirements: - `from` and `to` cannot be the zero address. - `from` must have a balance of at least `amount`. - the caller must have allowance for ``from``'s tokens of at least `amount`."
      },
      "transferOwnership(address)": {
        "details": "Transfers ownership of the contract to a new account (`newOwner`). Can only be called by the current owner."
      },
      "withdrawDividend()": {
        "details": "It emits a `Withdraw` event if the amount of withdrawn ZERO is greater than 0."
      },
      "withdrawableDividendOf(address)": {
        "params": {
          "account": "The address of a token holder."
        },
        "returns": {
          "_0": "The amount of dividend in wei that `account` can withdraw."
        }
      },
      "withdrawnDividendOf(address)": {
        "params": {
          "account": "The address of a token holder."
        },
        "returns": {
          "_0": "The amount of dividend in wei that `account` has withdrawn."
        }
      }
    },
    "version": 1
  },
  "userdoc": {
    "kind": "user",
    "methods": {
      "accumulativeDividendOf(address)": {
        "notice": "View the amount of dividend in wei that an address has earned in total."
      },
      "withdrawDividend()": {
        "notice": "Withdraws dividends distributed to the sender."
      },
      "withdrawableDividendOf(address)": {
        "notice": "View the amount of dividend in wei that an address can withdraw."
      },
      "withdrawnDividendOf(address)": {
        "notice": "View the amount of dividend in wei that an address has withdrawn."
      }
    },
    "version": 1
  },
  "storageLayout": {
    "storage": [
      {
        "astId": 120,
        "contract": "contracts/ZeroMoney.sol:ZeroMoney",
        "label": "_balances",
        "offset": 0,
        "slot": "0",
        "type": "t_mapping(t_address,t_uint256)"
      },
      {
        "astId": 126,
        "contract": "contracts/ZeroMoney.sol:ZeroMoney",
        "label": "_allowances",
        "offset": 0,
        "slot": "1",
        "type": "t_mapping(t_address,t_mapping(t_address,t_uint256))"
      },
      {
        "astId": 128,
        "contract": "contracts/ZeroMoney.sol:ZeroMoney",
        "label": "_totalSupply",
        "offset": 0,
        "slot": "2",
        "type": "t_uint256"
      },
      {
        "astId": 130,
        "contract": "contracts/ZeroMoney.sol:ZeroMoney",
        "label": "_name",
        "offset": 0,
        "slot": "3",
        "type": "t_string_storage"
      },
      {
        "astId": 132,
        "contract": "contracts/ZeroMoney.sol:ZeroMoney",
        "label": "_symbol",
        "offset": 0,
        "slot": "4",
        "type": "t_string_storage"
      },
      {
        "astId": 7,
        "contract": "contracts/ZeroMoney.sol:ZeroMoney",
        "label": "_owner",
        "offset": 0,
        "slot": "5",
        "type": "t_address"
      },
      {
        "astId": 1850,
        "contract": "contracts/ZeroMoney.sol:ZeroMoney",
        "label": "signer",
        "offset": 0,
        "slot": "6",
        "type": "t_address"
      },
      {
        "astId": 1852,
        "contract": "contracts/ZeroMoney.sol:ZeroMoney",
        "label": "startedAt",
        "offset": 0,
        "slot": "7",
        "type": "t_uint256"
      },
      {
        "astId": 1856,
        "contract": "contracts/ZeroMoney.sol:ZeroMoney",
        "label": "blacklisted",
        "offset": 0,
        "slot": "8",
        "type": "t_mapping(t_address,t_bool)"
      },
      {
        "astId": 1860,
        "contract": "contracts/ZeroMoney.sol:ZeroMoney",
        "label": "claimed",
        "offset": 0,
        "slot": "9",
        "type": "t_mapping(t_address,t_bool)"
      },
      {
        "astId": 1862,
        "contract": "contracts/ZeroMoney.sol:ZeroMoney",
        "label": "magnifiedDividendPerShare",
        "offset": 0,
        "slot": "10",
        "type": "t_uint256"
      },
      {
        "astId": 1866,
        "contract": "contracts/ZeroMoney.sol:ZeroMoney",
        "label": "magnifiedDividendCorrections",
        "offset": 0,
        "slot": "11",
        "type": "t_mapping(t_address,t_int256)"
      },
      {
        "astId": 1870,
        "contract": "contracts/ZeroMoney.sol:ZeroMoney",
        "label": "withdrawnDividends",
        "offset": 0,
        "slot": "12",
        "type": "t_mapping(t_address,t_uint256)"
      }
    ],
    "types": {
      "t_address": {
        "encoding": "inplace",
        "label": "address",
        "numberOfBytes": "20"
      },
      "t_bool": {
        "encoding": "inplace",
        "label": "bool",
        "numberOfBytes": "1"
      },
      "t_int256": {
        "encoding": "inplace",
        "label": "int256",
        "numberOfBytes": "32"
      },
      "t_mapping(t_address,t_bool)": {
        "encoding": "mapping",
        "key": "t_address",
        "label": "mapping(address => bool)",
        "numberOfBytes": "32",
        "value": "t_bool"
      },
      "t_mapping(t_address,t_int256)": {
        "encoding": "mapping",
        "key": "t_address",
        "label": "mapping(address => int256)",
        "numberOfBytes": "32",
        "value": "t_int256"
      },
      "t_mapping(t_address,t_mapping(t_address,t_uint256))": {
        "encoding": "mapping",
        "key": "t_address",
        "label": "mapping(address => mapping(address => uint256))",
        "numberOfBytes": "32",
        "value": "t_mapping(t_address,t_uint256)"
      },
      "t_mapping(t_address,t_uint256)": {
        "encoding": "mapping",
        "key": "t_address",
        "label": "mapping(address => uint256)",
        "numberOfBytes": "32",
        "value": "t_uint256"
      },
      "t_string_storage": {
        "encoding": "bytes",
        "label": "string",
        "numberOfBytes": "32"
      },
      "t_uint256": {
        "encoding": "inplace",
        "label": "uint256",
        "numberOfBytes": "32"
      }
    }
  }
}